S01700004763634170706C69636174696F6E312E737265635B
S11300000C9434000C943E000C943E000C943E007E
S11300100C943E000C943E000C943E000C943E0064
S11300200C943E000C943E000C943E000C943E0054
S11300300C943E000C943E000C943E000C943E0044
S11300400C943E000C943E000C943E000C943E0034
S11300500C943E000C943E000C943E000C943E0024
S11300600C943E000C943E0011241FBECFEFD8E048
S1130070DEBFCDBF0E9440000C9472000C940000BF
S113008082E084B91AB88CE08BB982E04B9915C030
S113009085B92FEF31EE94E0215030409040E1F7E4
S11300A000C0000015B82FEF31EE94E0215030402D
S11300B09040E1F700C00000E9CF85B92FEF34E3A9
S11300C09CE0215030409040E1F700C0000015B89A
S11300D02FEF34E39CE0215030409040E1F700C022
S10B00E00000D4CFF894FFCF17
S9030000FC
